:020000040800F2
:10000000580500209D0100084D0300084903000821
:100010004B0300084F02000887050008000000009D
:100020000000000000000000000000006D03000858
:1000300051020008000000004F03000831040008CE
:10004000B7010008B7010008B7010008B7010008B0
:10005000B7010008B7010008B7010008B7010008A0
:10006000B7010008B7010008B7010008B701000890
:10007000B7010008B7010008B7010008B701000880
:10008000B7010008B7010008B7010008B701000870
:10009000B7010008B7010008B7010008B701000860
:1000A000B7010008B7010008B7010008B701000850
:1000B000B7010008B7010008B7010008B701000840
:1000C000B7010008B7010008B7010008B701000830
:1000D000B7010008350500083B0500084105000888
:1000E000B7010008B7010008B7010008B701000810
:1000F000B7010008B7010008B7010008B701000800
:10010000B7010008B7010008B7010008B7010008EF
:10011000950400089B040008B7010008B701000817
:10012000B7010008B7010008B7010008B7010008CF
:10013000B7010008B7010008B7010008B7010008BF
:10014000B7010008B7010008B7010008B7010008AF
:10015000B7010008B7010008B7010008470500080B
:10016000B7010008B7010008B7010008B70100088F
:10017000B7010008B7010008B7010008B70100087F
:10018000B7010008B7010008DFF80CD000F018F83C
:1001900000480047B9050008580500200648804778
:1001A00006480047FEE7FEE7FEE7FEE7FEE7FEE75C
:1001B000FEE7FEE7FEE7FEE73504000889010008D8
:1001C000064C074D06E0E06840F0010394E80700A4
:1001D00098471034AC42F6D3FFF7DAFFBC050008AD
:1001E000DC0500080023002808DD42F2107200211F
:1001F000491C9142FCDB5B1C8342F8DB704710B565
:100200000346D86800280ADD99681868445C1846D7
:1002100000F0BAF9D868401ED860204610BD002012
:1002200010BD00B5C36882681A444368934200D881
:10023000D21A036899544268C168914203D100F010
:10024000A3F9012000BD491CC160002000BDFEE7EC
:1002500070472DE9F00100220126032706FA02FC6F
:100260000B6803EA0C03634538D10568530007FAAD
:1002700003F4A54305600D79D0F800809D4045EA60
:10028000080505600D79012D01D0022D17D1856873
:10029000A54385604D79D0F808809D4045EA080562
:1002A0008560456825EA0C0CC0F804C0D0F804C08D
:1002B0008D799540ADB24CEA050CC0F804C0D0F879
:1002C0000CC02CEA040CC0F80CC091F807C00CFA62
:1002D00003F3D0F80CC043EA0C03C360521C102A8D
:1002E000BCD3BDE8F001704741837047018370477C
:1002F00082B04FF44050009001208DF8040000209F
:100300008DF806008DF805008DF807000121082002
:1003100000F01EF80B4C69462046FFF79AFF4FF499
:1003200040512046FFF7E2FF4FF47A70FFF75AFF83
:100330004FF440512046FFF7D7FF4FF47A70FFF794
:1003400051FFECE7000C0240FEE7FEE77047704704
:10035000054A002903D011680843106070471168EE
:1003600021EA0000106070473038024070470000FA
:1003700082B00022019200922749086840F4803040
:100380000860086800F4003000900198401C01905B
:10039000009818B90198B0F5A04FF2D1086810F490
:1003A000003F02D00120009000E000920098012858
:1003B00030D11A48026842F0805202601848026840
:1003C00042F440420260174802680260026842F448
:1003D00000420260026842F4A0520260021F124B07
:1003E00013600A6842F080720A600A6812F0007FA7
:1003F000FBD00E4A40F205711160016821F0030143
:100400000160016841F002010160016801F00C0126
:100410000829FAD102B07047003802404038024043
:10042000007000400838024008544007003C024079
:100430007047000010B51148016841F47001016077
:100440000F48016841F0010101600E4A002111606E
:10045000026822F4102222F080720260031D0A4A10
:100460001A60026822F48022026008480160FFF7E7
:100470007FFF07494FF00060086010BD88ED00E085
:100480000038024008380240103000240C38024086
:1004900008ED00E0032000F003B80420AFF3008073
:1004A000F8B50646214850F8265006EB460020498C
:1004B00000EBC60001EB8004288810F0200F0FD05D
:1004C000A8880090636A1BB10122694630469847AC
:1004D0006068002804DD9DF800102046FFF7A1FEAB
:1004E000288810F0800F1FD0002240F22771284684
:1004F00000F02CF8E069002816D004F11000FFF796
:100500007EFE0090A36A1BB10122694630469847DF
:100510009DF80000A880E069002805D0012240F283
:100520002771284600F012F8F8BD000008000020EE
:10053000500000200020FFF7B3BF0120FFF7B0BF3D
:100540000220FFF7ADBF0520FFF7AABF40F66A13F0
:10055000C1F3421301F01F014FF0010C0CFA01F13D
:10056000012B07D0022B07D014303AB10268114397
:10057000016070470C30F8E71030F6E7026822EAB5
:10058000010101607047FEE78168491C8160426893
:10059000914201DB891A8160704702E008C8121F8E
:1005A00008C1002AFAD170477047002001E001C15C
:1005B000121F002AFBD17047FFF79AFEDC050008E6
:1005C00000000020500000009A0500082C060008DA
:1005D0005000002008050000AA0500082526273441
:1005E0003547000000100140004400400048004032
:1005F000004C00400050004000140140100000007A
:1006000000000200000004000000080000001000CC
:1006100020000000020000000100000001000000B6
:0C062000010000000100000002000000CA
:040000050800018965
:00000001FF
